{
  "contractName": "Decentragram",
  "abi": [
    {
      "anonymous": false,
      "inputs": [
        {
          "indexed": false,
          "internalType": "uint256",
          "name": "id",
          "type": "uint256"
        },
        {
          "indexed": false,
          "internalType": "string",
          "name": "hash",
          "type": "string"
        },
        {
          "indexed": false,
          "internalType": "string",
          "name": "description",
          "type": "string"
        },
        {
          "indexed": false,
          "internalType": "uint256",
          "name": "tipAmount",
          "type": "uint256"
        },
        {
          "indexed": false,
          "internalType": "address payable",
          "name": "author",
          "type": "address"
        }
      ],
      "name": "imageCreated",
      "type": "event"
    },
    {
      "anonymous": false,
      "inputs": [
        {
          "indexed": false,
          "internalType": "uint256",
          "name": "id",
          "type": "uint256"
        },
        {
          "indexed": false,
          "internalType": "string",
          "name": "hash",
          "type": "string"
        },
        {
          "indexed": false,
          "internalType": "string",
          "name": "description",
          "type": "string"
        },
        {
          "indexed": false,
          "internalType": "uint256",
          "name": "tipAmount",
          "type": "uint256"
        },
        {
          "indexed": false,
          "internalType": "address payable",
          "name": "author",
          "type": "address"
        }
      ],
      "name": "imageTipped",
      "type": "event"
    },
    {
      "inputs": [],
      "name": "imageCount",
      "outputs": [
        {
          "internalType": "uint256",
          "name": "",
          "type": "uint256"
        }
      ],
      "stateMutability": "view",
      "type": "function",
      "constant": true
    },
    {
      "inputs": [
        {
          "internalType": "uint256",
          "name": "",
          "type": "uint256"
        }
      ],
      "name": "images",
      "outputs": [
        {
          "internalType": "uint256",
          "name": "id",
          "type": "uint256"
        },
        {
          "internalType": "string",
          "name": "hash",
          "type": "string"
        },
        {
          "internalType": "string",
          "name": "description",
          "type": "string"
        },
        {
          "internalType": "uint256",
          "name": "tipAmount",
          "type": "uint256"
        },
        {
          "internalType": "address payable",
          "name": "author",
          "type": "address"
        }
      ],
      "stateMutability": "view",
      "type": "function",
      "constant": true
    },
    {
      "inputs": [],
      "name": "name",
      "outputs": [
        {
          "internalType": "string",
          "name": "",
          "type": "string"
        }
      ],
      "stateMutability": "view",
      "type": "function",
      "constant": true
    },
    {
      "inputs": [
        {
          "internalType": "string",
          "name": "_imgHash",
          "type": "string"
        },
        {
          "internalType": "string",
          "name": "_description",
          "type": "string"
        }
      ],
      "name": "uploadimage",
      "outputs": [],
      "stateMutability": "payable",
      "type": "function",
      "payable": true
    },
    {
      "inputs": [
        {
          "internalType": "uint256",
          "name": "_id",
          "type": "uint256"
        }
      ],
      "name": "tipImageOwner",
      "outputs": [],
      "stateMutability": "payable",
      "type": "function",
      "payable": true
    }
  ],
  "bytecode": "0x60806040526040518060400160405280600c81526020017f446563656e7472616772616d00000000000000000000000000000000000000008152506000908051906020019061004f929190610067565b50600060015534801561006157600080fd5b5061010c565b828054600181600116156101000203166002900490600052602060002090601f016020900481019282601f106100a857805160ff19168380011785556100d6565b828001600101855582156100d6579182015b828111156100d55782518255916020019190600101906100ba565b5b5090506100e391906100e7565b5090565b61010991905b808211156101055760008160009055506001016100ed565b5090565b90565b610e308061011b6000396000f3fe60806040526004361061004a5760003560e01c806306fdde031461004f57806384856482146100df5780638567ade81461024057806392053b631461026e5780639d7d247e14610299575b600080fd5b34801561005b57600080fd5b506100646103eb565b6040518080602001828103825283818151815260200191508051906020019080838360005b838110156100a4578082015181840152602081019050610089565b50505050905090810190601f1680156100d15780820380516001836020036101000a031916815260200191505b509250505060405180910390f35b3480156100eb57600080fd5b506101186004803603602081101561010257600080fd5b8101908080359060200190929190505050610489565b6040518086815260200180602001806020018581526020018473ffffffffffffffffffffffffffffffffffffffff1673ffffffffffffffffffffffffffffffffffffffff168152602001838103835287818151815260200191508051906020019080838360005b8381101561019a57808201518184015260208101905061017f565b50505050905090810190601f1680156101c75780820380516001836020036101000a031916815260200191505b50838103825286818151815260200191508051906020019080838360005b838110156102005780820151818401526020810190506101e5565b50505050905090810190601f16801561022d5780820380516001836020036101000a031916815260200191505b5097505050505050505060405180910390f35b61026c6004803603602081101561025657600080fd5b810190808035906020019092919050505061060f565b005b34801561027a57600080fd5b50610283610a6a565b6040518082815260200191505060405180910390f35b6103e9600480360360408110156102af57600080fd5b81019080803590602001906401000000008111156102cc57600080fd5b8201836020820111156102de57600080fd5b8035906020019184600183028401116401000000008311171561030057600080fd5b91908080601f016020809104026020016040519081016040528093929190818152602001838380828437600081840152601f19601f8201169050808301925050505050505091929192908035906020019064010000000081111561036357600080fd5b82018360208201111561037557600080fd5b8035906020019184600183028401116401000000008311171561039757600080fd5b91908080601f016020809104026020016040519081016040528093929190818152602001838380828437600081840152601f19601f820116905080830192505050505050509192919290505050610a70565b005b60008054600181600116156101000203166002900480601f0160208091040260200160405190810160405280929190818152602001828054600181600116156101000203166002900480156104815780601f1061045657610100808354040283529160200191610481565b820191906000526020600020905b81548152906001019060200180831161046457829003601f168201915b505050505081565b6002602052806000526040600020600091509050806000015490806001018054600181600116156101000203166002900480601f01602080910402602001604051908101604052809291908181526020018280546001816001161561010002031660029004801561053b5780601f106105105761010080835404028352916020019161053b565b820191906000526020600020905b81548152906001019060200180831161051e57829003601f168201915b505050505090806002018054600181600116156101000203166002900480601f0160208091040260200160405190810160405280929190818152602001828054600181600116156101000203166002900480156105d95780601f106105ae576101008083540402835291602001916105d9565b820191906000526020600020905b8154815290600101906020018083116105bc57829003601f168201915b5050505050908060030154908060040160009054906101000a900473ffffffffffffffffffffffffffffffffffffffff16905085565b60008111801561062157506001548111155b61062a57600080fd5b610632610d10565b600260008381526020019081526020016000206040518060a001604052908160008201548152602001600182018054600181600116156101000203166002900480601f0160208091040260200160405190810160405280929190818152602001828054600181600116156101000203166002900480156106f35780601f106106c8576101008083540402835291602001916106f3565b820191906000526020600020905b8154815290600101906020018083116106d657829003601f168201915b50505050508152602001600282018054600181600116156101000203166002900480601f0160208091040260200160405190810160405280929190818152602001828054600181600116156101000203166002900480156107955780601f1061076a57610100808354040283529160200191610795565b820191906000526020600020905b81548152906001019060200180831161077857829003601f168201915b50505050508152602001600382015481526020016004820160009054906101000a900473ffffffffffffffffffffffffffffffffffffffff1673ffffffffffffffffffffffffffffffffffffffff1673ffffffffffffffffffffffffffffffffffffffff168152505090506000816080015190508073ffffffffffffffffffffffffffffffffffffffff166108fc349081150290604051600060405180830381858888f1935050505015801561084f573d6000803e3d6000fd5b5034826060015101826060018181525050816002600085815260200190815260200160002060008201518160000155602082015181600101908051906020019061089a929190610d55565b5060408201518160020190805190602001906108b7929190610d55565b506060820151816003015560808201518160040160006101000a81548173ffffffffffffffffffffffffffffffffffffffff021916908373ffffffffffffffffffffffffffffffffffffffff1602179055509050507f5c20cfaffa936655cab167084939be37f2cd3d0f8897b567a90d70dea3e4c30683836020015184604001518560600151856040518086815260200180602001806020018581526020018473ffffffffffffffffffffffffffffffffffffffff1673ffffffffffffffffffffffffffffffffffffffff168152602001838103835287818151815260200191508051906020019080838360005b838110156109c05780820151818401526020810190506109a5565b50505050905090810190601f1680156109ed5780820380516001836020036101000a031916815260200191505b50838103825286818151815260200191508051906020019080838360005b83811015610a26578082015181840152602081019050610a0b565b50505050905090810190601f168015610a535780820380516001836020036101000a031916815260200191505b5097505050505050505060405180910390a1505050565b60015481565b6000825111610a7e57600080fd5b600073ffffffffffffffffffffffffffffffffffffffff163373ffffffffffffffffffffffffffffffffffffffff161415610ab857600080fd5b6000339050600081905060018054016001819055506040518060a001604052806001548152602001858152602001848152602001600081526020018273ffffffffffffffffffffffffffffffffffffffff16815250600260006001548152602001908152602001600020600082015181600001556020820151816001019080519060200190610b48929190610d55565b506040820151816002019080519060200190610b65929190610d55565b506060820151816003015560808201518160040160006101000a81548173ffffffffffffffffffffffffffffffffffffffff021916908373ffffffffffffffffffffffffffffffffffffffff1602179055509050507f70d47df7a661222c5c788ac0dcbb2db07ab5c28cfdf0e714255e3fe2c3bf800160015485856000856040518086815260200180602001806020018581526020018473ffffffffffffffffffffffffffffffffffffffff1673ffffffffffffffffffffffffffffffffffffffff168152602001838103835287818151815260200191508051906020019080838360005b83811015610c65578082015181840152602081019050610c4a565b50505050905090810190601f168015610c925780820380516001836020036101000a031916815260200191505b50838103825286818151815260200191508051906020019080838360005b83811015610ccb578082015181840152602081019050610cb0565b50505050905090810190601f168015610cf85780820380516001836020036101000a031916815260200191505b5097505050505050505060405180910390a150505050565b6040518060a0016040528060008152602001606081526020016060815260200160008152602001600073ffffffffffffffffffffffffffffffffffffffff1681525090565b828054600181600116156101000203166002900490600052602060002090601f016020900481019282601f10610d9657805160ff1916838001178555610dc4565b82800160010185558215610dc4579182015b82811115610dc3578251825591602001919060010190610da8565b5b509050610dd19190610dd5565b5090565b610df791905b80821115610df3576000816000905550600101610ddb565b5090565b9056fea2646970667358221220360373562d943ebcaf7ecc0898a87ae6dcfa30478315abc8196b1f67cc44c9c064736f6c63430006000033",
  "source": "// SPDX-License-Identifier: MIT\r\npragma solidity >=0.6.0;\r\n\r\ncontract Decentragram {\r\n  string public name = \"Decentragram\";\r\n\r\n  // storing images\r\n  uint public imageCount=0;\r\n  struct image{\r\n    uint id;\r\n    string hash;\r\n    string description;\r\n    uint tipAmount;\r\n    address payable author;\r\n  }\r\n  event imageCreated(\r\n    uint id,\r\n    string hash,\r\n    string description,\r\n    uint tipAmount,\r\n    address payable author\r\n  );\r\n  event imageTipped(\r\n    uint id,\r\n    string hash,\r\n    string description,\r\n    uint tipAmount,\r\n    address payable author\r\n  );\r\n\r\n  mapping(uint=> image) public images;\r\n  \r\n  //create images\r\n  function uploadimage(string memory _imgHash,string memory _description) public payable {\r\n    require(bytes(_imgHash).length > 0);\r\n    require(msg.sender!=address(0x0));\r\n    address addr=msg.sender;\r\n    address payable wallet=payable(addr);\r\n    imageCount=imageCount+1;\r\n\r\n    images[imageCount]=image(imageCount,_imgHash,_description,0,wallet);\r\n\r\n    emit imageCreated(imageCount,_imgHash,_description,0,wallet);\r\n  }\r\n  \r\n  //tip images\r\n  function tipImageOwner(uint _id) public payable{\r\n    require(_id>0 && _id<=imageCount);\r\n\r\n    image memory _image=images[_id];\r\n    address payable _author=_image.author;\r\n\r\n    (_author).transfer(msg.value); \r\n    _image.tipAmount= _image.tipAmount+msg.value;\r\n    images[_id]=_image;\r\n\r\n    emit imageTipped(_id, _image.hash, _image.description, _image.tipAmount, _author);\r\n  }\r\n}\r\n",
  "sourcePath": "C:/Users/Ishit Aggarwal/Desktop/decentragram/src/contracts/Decentragram.sol",
  "compiler": {
    "name": "solc",
    "version": "0.6.0+commit.26b70077.Emscripten.clang"
  },
  "schemaVersion": "3.4.1",
  "updatedAt": "2021-06-23T19:59:27.314Z",
  "networkType": "ethereum",
  "devdoc": {
    "methods": {}
  },
  "userdoc": {
    "methods": {}
  }
}